S01200004D792050726F6A6563742E7372656355
S113000020210020210100001D0100001D0100002D
S113001000000000000000000000000000000000DC
S11300200000000000000000000000001D010000AE
S113003000000000000000001D0100001D01000080
S11300401D0100001D010000890E0000350C000098
S11300501D0100001D0100001D0100001D01000024
S11300601D0100001D0100001D0100001D01000014
S11300701D0100000000000000000000AD1500009C
S11300801D0100001D0100001D010000E519000014
S11300901D0100001D0100001D0100001D010000E4
S11300A01D0100001D01000010B5064C2378002B33
S11300B007D1054B002B02D0044800E000BF012308
S11300C0237010BD38000020000000004021000013
S11300D0084B10B5002B03D00749084800E000BFC7
S11300E007480368002B00D110BD064B002BFBD042
S11300F09847F9E7000000003C0000204021000080
S1130100402100000000000010B5024B9847024B4C
S1130110984710BD090300008D1B0000FEE7000096
S113012010B5104A104B9A4209D00F4B0D4A03E008
S113013011681960043304320C498B42F8D30C4B18
S113014002E000221A6004330A4A9342F9D30A4AAD
S1130150FF210A4B8B439360094B9847094B9847FF
S1130160FEE7C046402100000000002038000020C7
S1130170380000201C01002000ED00E00000000019
S1130180B11E0000F9190000034A516980239B0045
S11301900B4353617047C0460008004010B5034B41
S11301A0984703490348044B984710BD8901000050
S11301B000240040B4000020B506000070B5134BC5
S11301C0DE20195C042291431954195C0125A943CA
S11301D001242143C9B219541F38195C0F26B143B5
S11301E002263143C9B21954DF215E5C96435E5442
S11301F05A5CAA432243D2B25A541A5CD0390A40F8
S113020020210A43D2B21A5470BDC0460060004196
S1130210064B4021C42299500331083A9950044AAC
S1130220D3693F390B43D3617047C046001C00407B
S11302300008004010B5044B984704490448054B96
S11302409847054B984710BD110200000008004272
S1130250F8000020A9080000BD01000010B5024804
S1130260024B984710BDC04610E000E02D08000086
S113027030B50F4B5422995C0125A9430124214335
S1130280C9B299543A20195C453A91430422114366
S1130290C9B2195455215A5CAA432243D2B25A54C2
S11302A01A5C46390A4040210A43D2B21A5430BD7E
S11302B000600041054AD16980231B010B43D361CF
S11302C04021E023024AD1507047C0460008004054
S11302D0001C004010B5064B9847064B9847064B48
S11302E09847020005490648064B984710BDC0468A
S11302F0B502000071020000D9190000002C004270
S11303009000002099090000F0B5C64600B51C4BCA
S11303109847C022D205042454601A4B1A499962A2
S11303201A49996254604220195C04252943C9B2D0
S1130330195454611C5C01218C431C549427D151E1
S1130340882691516630124C1C50C0242406A046C5
S11303501C50C024A4461C5D8C4365465C5508248F
S1130360D45194510B4A1A5042461A501B301A5C0D
S11303708A431A54084B984704BC9046F0BDC046C3
S11303803D0B00000060004104000240000002C078
S113039001000040080000405D020000830701D115
S11303A0012070470020FCE710B50C0080B2104B10
S11303B0984700280BD00C2C03D8A4000D4B1B59D4
S11303C09F46002010E00C480EE00C480CE00C2C7A
S11303D003D8A4000A4B1B599F46002004E0094897
S11303E002E0064800E0084810BD0748FCE7C046A4
S11303F09D030000F81E0000803B2600008D2700AE
S11304002C1F000000EA240080DE2800F0B5C64658
S113041000B50C009046866904E01F4B9C4209D34A
S1130420E41A0136B7B238001C4B98470028F4D0C0
S11304301B4BF3E70125290030001A4B98478442EF
S113044003D3241A0135EDB2F5E70121164B9C4282
S113045005D9164B9C4664440131C9B2F6E7002223
S1130460134B9C4205D9134B9C4664440132D2B2CF
S1130470F6E700233B2C03D93C3C0133DBB2F9E71C
S11304804046C7804571017182704370047000203A
S113049004BC9046F0BDC0468033E1019D030000DA
S11304A00085E201A90300007F51010080AEFEFF38
S11304B00F0E0000F0F1FFFFF0B5DE4657464E4642
S11304C04546E0B583B0CB880093DEB28369994694
S11304D06A4613711379F61AF6B24F790B799A4674
S11304E08B7898464B789B460B7801930025002423
S11304F003E01A4B9C4664440135B5420AD24B468C
S1130500581980B2164B98470028F2D0154B9C46D8
S11305106444F1E7012505E0E9B20098124B9847DD
S113052024180135BD42F7D35346013B0F485843C5
S11305302418E12000014346584320185B461B0160
S11305405A469B1A9C000019019B9C46604403B0C8
S11305503CBC90469946A246AB46F0BD8033E101CF
S11305609D0300000085E201A90300008051010001
S113057070B50C00D068CD680B7C052B06D89B00A9
S11305801549CB589F46A84200D33C35E56070BD61
S1130590A842FBD3E1231B019C466544F6E7A8422D
S11305A0F4D30E4B9C466544F0E7A842EED3508941
S11305B0517A0B4B98472D18E8E7A842E6D35089A7
S11305C0084B9847002803D1074B9C466544DDE758
S11305D0064B9C466544D9E7601F0000805101002A
S11305E0A90300009D0300008033E1010085E201BE
S11305F070B586B005000C00294B9847060001AA87
S113060001002800274B98470396237C052B12D81A
S11306109B00254AD3589F466B465B8963816B4692
S11306205B7A63726B461B7A23726B469B79A37168
S11306306B465B796371261D310028001B4B98477C
S1130640E0606A4621002800194B9847E1683200AF
S11306502800144B984706B070BD6B465B896381D4
S11306606B465B7A63726B461B7A23726B469B798B
S1130670A371E0E76B465B8963816B465B7A6372C7
S11306806B461B7A2372D6E76B465B8963816B46A4
S11306905B7A6372CFE76B465B896381CBE7C046C5
S11306A0550E00000D040000781F0000B90400007E
S11306B07105000070B504000D00431E9841C0B2DE
S11306C0E022520009490A4B98472368AB4208D0FC
S11306D0002B08D125602000064B9847064BA361E8
S11306E070BD0020FCE712204042F9E7901F000093
S11306F0690A0000490D0000B207000010B50400AB
S1130700431E9841C0B2E622FF320449044B984785
S11307102000044B9847002010BDC046901F0000E5
S1130720690A0000D90D000030B583B004000D0043
S1130730431E9841C0B2832292000E490E4B984743
S113074020000E4B984701006A4620000C4B984746
S11307502B786A4613706B785370AB789370694644
S11307602000084B984701002000074B98470020C1
S113077003B030BD901F0000690A0000550E000050
S11307800D040000B90400001D0E000030B583B054
S113079004000D00431E9841C0B2892292000E4904
S11307A00E4B984720000E4B984701006A462000E4
S11307B00C4B98472B786A4613716B7853716B888E
S11307C0D38069462000084B984701002000074B5E
S11307D09847002003B030BD901F0000690A000054
S11307E0550E00000D040000B90400001D0E0000A9
S11307F070B504000D00431E9841C0B2064A074973
S1130800074B98472000074B984701002A00200017
S1130810054B9847002070BD3B020000901F00006C
S1130820690A0000550E00000D04000010B5024BCB
S11308301860024B984710BD540000207115000049
S113084010B584B01438848B01AB1C801400029260
S1130850064A5A8003911900054B9847002802D193
S1130860200004B010BD0400FAE7C0460080FFFF7A
S1130870E112000010B584B01438848B01AB1C80E5
S113088014000292064A5A8003911900054B9847B6
S1130890002802D1200004B010BD0400FAE7C046CD
S11308A00180FFFFE112000070B504000D00431E3B
S11308B09841C0B25E220749074B9847290020009F
S11308C0064B9847002803D1054BA361054B636190
S11308D070BDC046AC1F0000690A00003112000060
S11308E0750800004108000010B5014B984710BD81
S11308F0611200008905890D8023DB001A400A4338
S11309008283100070471430086000207047000094
S113091070B504000D00160000280ED000290AD07E
S1130920012034220649074B9847236832002900E6
S11309302000984770BD0020F3E70020F1E7C0468F
S1130940C81F0000690A000070B504000D001600FD
S113095000280ED000290AD001203D220649074B69
S113096098476368320029002000984770BD002032
S1130970F3E70020F1E7C046C81F0000690A000041
S113098010B54369002B00D0984710BD10B583699A
S1130990002B00D0984710BD70B504000D00160060
S11309A0002815D0002915D0002A0FD001203322A9
S11309B009490A4B9847E6613368290020009847A3
S11309C0074B2360074B6360002070BD0020EEE7F7
S11309D00020ECE70020EAE7DC1F0000690A0000C1
S11309E0810900008D09000010B5041E15D0C369EB
S11309F0002B10D001204B220A490B4B9847E36986
S1130A005B6920009847002809D1E3699B682000AE
S1130A109847002010BD0020EDE70020EBE71120EF
S1130A204042F7E7DC1F0000690A000070B50400CB
S1130A300D001600002811D0C369002B0CD0012032
S1130A407D220749074B9847E3691B693200290057
S1130A5020009847002070BD0020F1E70020EFE758
S1130A60DC1F0000690A0000002800D100BE7047A6
S1130A70F8B505001700CE0807230B4001249C405D
S1130A80E4B200281ED0002A1ED007291ED9002057
S1130A9031221449144B9847AB191B7923421ED1B8
S1130AA029001248124B9847002811D0AF60AD19A5
S1130AB02B7923432B710D4B9B191A7914431C7109
S1130AC00020F8BD0020E3E70020E1E70120DFE794
S1130AD000232B7129000548064B9847E6E70220BE
S1130AE04042EEE7F41F0000690A000058000020AD
S1130AF0F90A0000110B00000368002B03D08B429D
S1130B0003D01B68F9E7002070470120FCE70000D0
S1130B1070B504000D00064B984701235840C0B23D
S1130B2039220449044B984723682B60256070BD23
S1130B30F90A000014200000690A000010B5094BEE
S1130B405A685A600220084B9847084B9847084B4C
S1130B509847084B9847084B98471F20074B9847DE
S1130B6010BDC04600400041E90C0000890C0000A3
S1130B70AD0C0000790C0000E50C0000410C0000F5
S1130B80F0B583B0254B5A690192019A5A61244BFE
S1130B901868431E9841C0B2DA222249224B984772
S1130BA001256D422FE0DB00204AD3185D686B1CE1
S1130BB003D01B4B1B68280098470122A240019BCD
S1130BC09343019301981A4B9847013844B2631C2C
S1130BD014D00326002001E00139CEB2B042E6D899
S1130BE033185B10D9B2FF221340DF000F4ABA5CFE
S1130BF0A242D8D0F0DA0131C8B2EFE7074B5A6904
S1130C000192019A5A61019B002B05D00198084B6F
S1130C109847013844B2DAE703B0F0BD0028004039
S1130C20600000204C200000690A0000342000000D
S1130C305D1E000010B5014B984710BD810B0000EC
S1130C40C30707D5094A0A4B1A62094B5B687D2220
S1130C501A42FAD1030707D5064A054BDA62044B58
S1130C605B687D221A42FAD17047C0460501010033
S1130C70001C004004230100024B08229A71073A29
S1130C801A71704700080040074A9E23938200238C
S1130C909375D375D3691B0A1B02F82149010B40D4
S1130CA0D3610423137470470014004082220C4B58
S1130CB01A7538230A4AD35C9B07FAD4084BDB68BD
S1130CC0DB06FBD5064A137D802149420B43DBB288
S1130CD013753823024AD25C2A3B1A42F9D1704771
S1130CE00010004070470000094B9B78032213401A
S1130CF098420CD0064AFF239371937803218B43C7
S1130D00084018439070024B9B79002BFBD070472E
S1130D100004004010B504000268918953890B4017
S1130D20DA0502D45B0407D410BD436898472368EE
S1130D30802252009A81F7E78368984723688022CB
S1130D40D2019A81F0E7000010B5041E37D0036881
S1130D50002B32D001202F221A491B4B98471B4BE2
S1130D601C6021680A691A4B1A42FBD10B889B0745
S1130D700BD50B88022293430B800A69144B1A4249
S1130D80FBD1226813699B07FCD4226813880121D4
S1130D900B439BB213801369DB07FCD423681A69E5
S1130DA0D207FCD40B4A1A801969094A1142FBD1B3
S1130DB0236800221A66002010BD0020CBE7002023
S1130DC0C9E7C04664200000690A000064000020EE
S1130DD003800000008BFFFF10B5041E15D00368CC
S1130DE0002B10D00120732209490A4B984721682F
S1130DF00B88022213439BB20B800A69064B1A42EA
S1130E00FBD1002010BD0020EDE70020EBE7C04639
S1130E1064200000690A00000380000070B504002B
S1130E200D00002810D00368002B0BD001208B226A
S1130E300649074B98472268956113691B07FCD440
S1130E40002070BD0020F2E70020F0E764200000DD
S1130E50690A000010B5041E0FD00368002B0AD0E5
S1130E60012097220649074B9847226813691B07FC
S1130E70FCD4906910BD0020F3E70020F1E7C046E0
S1130E8064200000690A000010B5024B1868024B88
S1130E90984710BD64000020150D0000024B9C46CD
S1130EA06044800AC0B2704700FCFFBD10B50D4B12
S1130EB098470023002B08D0E62292000A4900201C
S1130EC00A4B98470120404210BD5A00D218D10065
S1130ED0074A5218127D904202D00133DBB2E9E78F
S1130EE058B2F1E79D0E0000CC200000690A000012
S1130EF07C20000070B505000C0008002D4B9847BD
S1130F00C0B2E369DB071DD443001B18DA002A4B87
S1130F109B189A691C231A40E3699B07FCD1236838
S1130F209B0709D5236802218B432360E3699B0750
S1130F30FCD1E3699B07FCD4012313432360E369D9
S1130F409B07FCD1E369DB07FCD443001B18DA00E0
S1130F50194B9B189B692360E3699B07FCD14300F1
S1130F601B18DA00144B9B18DB696360E3695B07A9
S1130F70FCD442001218D1000F4B5B181A6AE260CD
S1130F80DA7E03231A40AA81023B93429B415B42CF
S1130F90626A0A490A409B0313436362E3695B077D
S1130FA0FCD443001818C200034B9B18DB8CEB8164
S1130FB0002070BDAD0E00007C200000FFBFFFFFCD
S1130FC070B5050004692368DB0E01261E40431E2C
S1130FD09841C0B28E4A8F498F4B98476B68012B5A
S1130FE04DD063688D4A13406360E3695B07FCD4AA
S1130FF02B885A054ED56A88D20704D56A88802181
S1131000C9000A436A805B00854A1A40E3695B07AA
S1131010FCD4636A8021C9010B401343802212026D
S113102013436362E3695B07FCD42E697D4A337E14
S1131030DBB21800511E002A02D00A009B07F6D02A
S11310402368DB0E01221A40E3695B07FCD4638B3F
S11310509BB2C10700D48FE09A072FD501222276D4
S11310606A88802149010A436A806A886E490A4075
S11310706A80DB0700D4C6E005204042A2E0002ECF
S1131080AFD062688023DB0213436360E3695B07CC
S1131090FCD4ADE75B00FF2213406A8801210A40BB
S11310A01A43E3695B07FCD4636A8021C9010B40DE
S11310B013436362E3695B07FCD4B6E75B071BD4A5
S11310C06B885B0534D52A881212520006231A4015
S11310D0E3695B07FCD4636A8021C9010B401343B5
S11310E0F12213436362E3695B07FCD46B884F4AC4
S11310F013406B80002065E06B68002B04DD6B8877
S11311008022520113436B806B881BB2002B06DBD9
S11311106B88454A13406B800220404252E062686B
S1131120C0239B0213436360E3695B07FCD4EFE7CE
S11311306868002811D16B881BB2002B04DB6B8814
S1131140394A13406B803DE06268C0239B0213431D
S11311506360E3695B07FCD4F1E7AB681A78282382
S1131160E254E3695B07FCD4AB680133AB606B68A2
S1131170013B6B60002025E0810747D569680029A1
S11311803CD05B073AD401396960002901D1002AB7
S11311901BD0012917D06B68002B07D16B881BB2B9
S11311A0002B1BDB6B88204A13406B80AA68531CFE
S11311B0AB60E3695B07FCD42823E35C1370022370
S11311C02376002070BD002AE5D062688023DB020C
S11311D013436360E3695B07FCD4DCE76368124A8A
S11311E013406360E3695B07FCD46268C0239B021D
S11311F013436360E3695B07FCD4D3E702232376DC
S113120002204042DEE704204042DBE70020D9E729
S113121094050000CC200000690A0000FFFFFBFFDA
S1131220FE070000FFFF0000FFFEFFFFFFFBFFFFC4
S113123070B504000D00431E9841C0B2044A05492C
S1131240054B9847256129002000044B984770BD41
S113125007050000CC200000690A0000F50E00001C
S113126070B50400194D431E9841C0B2184A2900B4
S1131270184EB04724692000431E9841C0B2164A54
S11312802900B0472368022213432360E3699B07C4
S1131290FCD104201149E3695B07FCD4628B120979
S11312A003231340012B0BD001390029F3DC01384F
S11312B0002807D010236383E3695B07FCD4E9E7C4
S11312C0002070BD06204042FBE7C046CC20000051
S11312D024050000690A0000F4050000FFFF000077
S11312E0F8B505000E000469431E9841C0B2934A44
S11312F09349944FB8472869431E9841C0B2B82215
S1131300D2008F49B8473000431E9841C0B28E4A7C
S11313108B49B8476B88DB0500D50BE172888023C5
S11313205B009C461A4372802A00310089C989C235
S11313306268634613436360E3695B07FCD4280077
S1131340824B9847002800D19DE06B88804A134067
S11313506B80F8BD05204042A6E073881BB2002BC9
S113136004DB6B887A4A13406B80F2E76268C0231F
S11313709B0213436360E3695B07FCD4F1E7530703
S11313801BD46B885B0534D52A88121252000623BD
S11313901A40E3695B07FCD4636A8021C9010B40EE
S11313A01343F12213436362E3695B07FCD46B8844
S11313B0684A13406B80002065E06B68002B04DDF5
S11313C06B888022520113436B806B881BB2002B05
S11313D006DB6B885E4A13406B800220404252E079
S11313E06268C0239B0213436360E3695B07FCD418
S11313F0EFE76868002811D16B881BB2002B04DB6F
S11314006B88534A13406B803DE06268C0239B02A3
S113141013436360E3695B07FCD4F1E7AB681A78B4
S11314202823E254E3695B07FCD4AB680133AB6067
S11314306B68013B6B60002025E0BB0778D56B68C7
S1131440002B6DD052076BD4013B6B60002B01D194
S113145000294CD0012B48D06B68002B07D16B8836
S11314601BB2002B4CDB6B88394A13406B80AA6893
S1131470531CAB60E3695B07FCD42823E35C137063
S11314800223237600206B88DB0500D461E72869FA
S1131490314A037EDBB21F00511E002A00D159E7F6
S11314A00A009B07F5D00020002800D055E72368E8
S11314B0DB0E01211940E3695B07FCD4628B92B215
S11314C0FB07BAD5930700D459E7012323766B8829
S11314D0802149010B436B806B881D490B406B8055
S11314E0D30722D505204042CDE70029B4D0626855
S11314F08023DB0213436360E3695B07FCD4ABE73F
S11315006368134A13406360E3695B07FCD4626851
S1131510C0239B0213436360E3695B07FCD4A2E727
S11315200223237602204042ADE704204042AAE78A
S11315300020A8E7062040420BE7C046BF05000094
S1131540CC200000690A0000C1050000C10F0000A2
S1131550FFFEFFFFFFFBFFFFFFFF0000024B034AFC
S11315605A6005221A60704710E000E0FFFFFF0098
S113157010B5014B984710BD5D15000070B505000E
S11315800469E36ADB0705D50123E3620368002BE2
S113159000D09847A36A1B0706D50823E3626B684B
S11315A0002B01D02800984770BD000010B5024BF5
S11315B01868024B984710BD680000207D15000094
S11315C00269136802210B43136013699B07FCD162
S11315D070470269136802218B43136013699B07E8
S11315E0FCD17047026913699B07FCD113685B083F
S11315F001201840704770B505000469A37ADB0721
S113160005D50123A3720368002B00D09847637AA1
S11316109B0706D50223A3726B68002B01D0280018
S1131620984770BD034B984200D07047024B196035
S1131630FBE7C046002C00426C00002010B50E4BA6
S11316409C466044800AC3B20020002808D0B0221F
S113165052000A4900200A4B98470120404210BD1D
S1131660820012189100074A8A5C9A4202D0013023
S1131670C0B2EAE740B2F2E700E0FFBDE8200000B4
S1131680690A00000000002070B506000C00080084
S1131690534B9847050034612369DB0714D423694D
S11316A09B07FCD123689B0709D523680222934337
S11316B0236023699B07FCD123699B07FCD4012386
S11316C0236023699B07FCD12369DB07FCD4AB00AF
S11316D05B199A00434B9B185B68236023699B0743
S11316E0FCD1AA00521991003E4B5B189A7AE2731E
S11316F01A89E280032222735A680C231340082BB0
S113170054D0002B66D1AB005B199A00354B9B1863
S11317109B89A3832369C0221A42FBD1AB005B19C6
S11317209A00304B9B181B8AE3832369C0221A4218
S1131730FBD1310020002C4B9847AB005B199A0079
S1131740284B9B185B785BB2002B0BDB1F221340EA
S11317501E3A9A401300802224498B50BFF34F8FC6
S1131760BFF36F8FAB005B199A001E4B9B185B781D
S11317705BB2002B08DB1F2213401E3A9A40130071
S1131780C022520019498B50AB005D19AA00154BB9
S11317909B185B785BB2002B1FDB1F2213401E3AA1
S11317A09A401300114A1360002070BD0D4B5B1862
S11317B0DB68E3612369C0221A42FBD1AB005B19E9
S11317C09A00084B9B181B6923622369C0221A42A2
S11317D0FBD1AEE701204042E7E70020E5E7C04641
S11317E03D160000000000202516000000E100E086
S11317F070B50E001500046920001B4B9847820049
S113180012189100194B5B18DE601D615A680C2395
S11318101340082B16D083001B189A00134B9B18F7
S11318209B89A3832369C0221A42FBD18300181821
S113183082000E4B9B181B8AE3832369C0221A4241
S1131840FBD170BDE6612369C0221A42FBD183003B
S113185018188200054B9B181B6923622369C02258
S11318601A42FBD1EDE7C0463D16000000000020FF
S113187010B5046920000C4B9847830018188200A7
S11318800A4B9B185A680C231340082B06D0236973
S1131890C0221A42FBD1A08B80B210BD2369C022A2
S11318A01A42FBD1E069F8E73D1600000000002071
S11318B010B504692000144B98478300181882005F
S11318C0124B9B185A680C231340082B11D0236920
S11318D0C0221A42FBD1A18B89B22369C0221A42C9
S11318E0FBD1E38B9BB2FA2080005843084B984706
S11318F010BD2369C0221A42FBD1E1692369C022C9
S11319001A42FBD1236AEEE73D16000000000020D6
S1131910451D000070B504692000164B984705006A
S1131920C22215490120154B9847A800401982008E
S1131930134B9B185B785BB2002B0BDB1F2213400D
S11319401E3A9A40130080220E498B50BFF34F8FEA
S1131950BFF36F8F236802229343236023699B079D
S1131960FCD123680122134323602369DB07FCD4E1
S113197070BDC0463D160000E8200000690A000062
S11319800000002000E100E070B504000E00150026
S1131990431E9841C0B21822FF320D490D4B98479F
S11319A0002E08D12369002D02D101221A7204E00D
S11319B001225A7201E0012E00D070BD2369002D6E
S11319C002D002225A72F8E702221A72F5E7C046E0
S11319D0E8200000690A0000014814307047C0463E
S11319E00000002010B5024B1868024B984710BD48
S11319F06C000020F715000030B58BB0234B9847DE
S1131A0002AC234BE3800423637119222271A37077
S1131A1000256570257004A81E4B98471E4B9847F7
S1131A201E4B9847029861681D4B984724201D4B14
S1131A30984710219823C022D205D1501A4B9847B9
S1131A406B46DC1DDD71991DD0230B7001227720BC
S1131A50164B9847012221007720154B984723788D
S1131A60602B01D1134B984702AB1C7801E0114B5A
S1131A709847250002AC20000F4B98472478A542D4
S1131A80F8D0E307F3D40D4B9847F2E709010000BF
S1131A90E5070000B11B0000B51B0000191C000085
S1131AA0351C0000751C0000B91C0000E51C00007A
S1131AB0151D0000051C0000611C0000F11B000046
S1131AC070B582B00E00002813D1164B1D680CE0CF
S1131AD0737801AC63700123237020006B6898470E
S1131AE032782378134033702D68002DF0D102B082
S1131AF070BD022804D00128F9D10A4B9C680DE07E
S1131B00084B5C6803E0F0B2636898472468002CD3
S1131B10F9D1ECE7F0B2636898472468002CF9D156
S1131B20E5E7C0467000002070B5084E084C0C3440
S1131B30320001212000074DA84732000021200077
S1131B40A847320002212000A84770BDC11A000036
S1131B5070000020710A000010B50400431E984173
S1131B60C0B240220349044B984721000348044B68
S1131B70984710BDFC200000690A00007000002096
S1131B80110B0000002303707047000010B5044BD4
S1131B9098470448044B4360044B984710BDC04623
S1131BA0291B000088000020851B0000591B000031
S1131BB07047000010B5064B9847064C00220649B2
S1131BC02000064B98472000054B984710BDC0469F
S1131BD0D502000090000020102700002D0A00000C
S1131BE0E9090000014B9883D9837047002C004217
S1131BF010B500210148024B984710BDFFFF0000BB
S1131C00E51B000010B502490020024B984710BDA7
S1131C10FFFF0000E51B000010B5034B9847034885
S1131C20034B984710BDC0469D010000B40000203E
S1131C30FD06000010B582B000900191054C01A989
S1131C402000054B984769462000044B984702B092
S1131C5010BDC046B40000208D0700002907000015
S1131C6010B501000148024B984710BDB400002094
S1131C70F107000070B543091F2404400125290021
S1131C80A140DA01C020C005101881600E04360C92
S1131C908020C0053043074EB44662449062090C6C
S1131CA0C020000601439162101940300378AB4311
S1131CB0037070BD0060004110B5054B9847054C9A
S1131CC005492000054B98472000054B984710BD57
S1131CD035020000F8000020180100200709000068
S1131CE0E908000070B50C00150080221201010003
S1131CF00448054B9847054B18682A002100044BFB
S1131D00984770BDF8000020F50800001801002075
S1131D101109000070B50C001500802212010100A9
S1131D200448054B9847054B18682A002100044BCA
S1131D30984770BDF8000020F50800001801002045
S1131D4049090000002243088B4274D303098B42E3
S1131D505FD3030A8B4244D3030B8B4228D3030C77
S1131D608B420DD3FF22090212BA030C8B4202D319
S1131D701212090265D0030B8B4219D300E0090A41
S1131D80C30B8B4201D3CB03C01A5241830B8B424A
S1131D9001D38B03C01A5241430B8B4201D34B0333
S1131DA0C01A5241030B8B4201D30B03C01A524198
S1131DB0C30A8B4201D3CB02C01A5241830A8B421D
S1131DC001D38B02C01A5241430A8B4201D34B0206
S1131DD0C01A5241030A8B4201D30B02C01A52416A
S1131DE0CDD2C3098B4201D3CB01C01A524183091E
S1131DF08B4201D38B01C01A524143098B4201D358
S1131E004B01C01A524103098B4201D30B01C01A82
S1131E105241C3088B4201D3CB00C01A52418308FC
S1131E208B4201D38B00C01A524143088B4201D329
S1131E304B00C01A5241411A00D201465241104689
S1131E407047FFE701B5002000F006F802BDC04668
S1131E500029F7D076E770477047C04610B50023D5
S1131E60002802D000F004F8431C180010BDC0463E
S1131E70414208401C2101231B04984201D3000C59
S1131E8010391B0A984201D3000A08391B099842E9
S1131E9001D30009043902A2105C401A7047C046FD
S1131EA01B1C1D1D1E1E1E1E1F1F1F1F1F1F1F1F4D
S1131EB070B500260C4D0D4C641BA410A64209D12C
S1131EC0002600F02DF90A4D0A4C641BA410A6420A
S1131ED005D170BDB300EB5898470136EEE7B30067
S1131EE0EB5898470136F2E72C2100002C21000022
S1131EF02C21000030210000C2030000E603000092
S1131F00C6030000E6030000CA030000E603000065
S1131F10CA030000E6030000E6030000CA03000051
S1131F20E6030000CA030000E6030000DA03000031
S1131F30EA030000DE030000EA030000E2030000FD
S1131F40EA030000E2030000EA030000EA030000E1
S1131F50E2030000EA030000E2030000EA030000D9
S1131F608C05000086050000900500009E05000019
S1131F70AA050000BA050000360600001806000095
S1131F805A06000074060000880600009606000049
S1131F902E2E2F68616C2F7372632F68616C5F63E0
S1131FA0616C656E6461722E630000002E2E2F68D2
S1131FB0616C2F7372632F68616C5F6932635F6D4C
S1131FC05F73796E632E63002E2E2F68616C2F73FE
S1131FD072632F68616C5F696F2E63002E2E2F6809
S1131FE0616C2F7372632F68616C5F70776D2E6301
S1131FF0000000002E2E2F68616C2F7574696C73BD
S11320002F7372632F7574696C735F6576656E7474
S11320102E6300002E2E2F68616C2F7574696C730B
S11320202F7372632F7574696C735F6C6973742E8C
S11320306300000005000000250000000600000009
S11320401600000007000000170000002E2E2F6865
S1132050706C2F6569632F68706C5F6569632E63AC
S1132060000000002E2E2F68706C2F7274632F688E
S1132070706C5F7274632E63000000000000000047
S1132080000000000000000000000000000000004C
S11320900100000014002000000100000E0F0000E9
S11320A00000D70000093D0000000000000000000F
S11320B0000000000000000000000000000000001C
S11320C00000000000000000000000002E2E2F6819
S11320D0706C2F736572636F6D2F68706C5F7365BE
S11320E072636F6D2E6300002E2E2F68706C2F7438
S11320F0632F68706C5F74632E6300002E2E2F7341
S11321006C6565705F6D616E616765722F736C6578
S113211065705F6D616E616765722E63000000001B
S1132120F8B5C046F8BC08BC9E467047D100000014
S1132130F8B5C046F8BC08BC9E467047A90000002C
S11321400313000000000000000000329F0F000095
S1132150CF0700008916000015190000C115000002
S1132160D3150000F1170000E515000071180000F8
S10B2170B118000089190000F8
S9030000FC
